:020000040008F2
:1000000000200820654F08002D1008004B4808000C
:100010002F10080031100800331008000000000005
:100020000000000000000000000000003510080083
:100030003710080000000000391008007F48080051
:100040003B1008003D1008003F1008004110080058
:100050004310080045100800471008004910080028
:10006000052808004B100800BB4808000F4908008D
:100070004D10080023280800631B08008D1B080092
:100080004F100800511008001B32080053100800E0
:100090005510080057100800591008005B100800A0
:1000A0005D1008005F100800611008006310080070
:0C00B00065100800671008002B10080005
:1000BC0010B584B001A8DFF858190CC90CC0083968
:1000CC000838DFF8200D00788DF806000024DFF8E2
:1000DC00EC0BDFF8EC1B0860DFF8E00BDFF8081D19
:1000EC000860DFF8D80BDFF8041D08600020DFF88B
:1000FC00001D0870DFF8FC0C006800905FF4001025
:10010C00DFF8101908605FF40000DFF8EC1C0860E1
:10011C005FF08070DFF8E01C0860642100A800F03C
:10012C009DFF0028F9D05FF40010DFF8CC1C0860AC
:10013C00DFF8C00C006800904FF47A7100A800F052
:10014C008DFF0028F8D0DFF8AC0C00680090DFF8C9
:10015C00500D0068C00709D4E4B2002C06D14FF44E
:10016C007A7100A800F07AFF0400F0E7E4B2002CEA
:10017C0010D100F025F800F04FFC01A800F0B5FB01
:10018C008DF8080001A800F049FA4FF47A713E206E
:10019C0000F00AFB1FBD0020C82801D2401CFBE761
:1001AC005FF08070DFF86C1808600020142801D212
:1001BC00401CFBE75FF08070DFF83C1C0860704768
:1001CC00F0B58BB006A8DFF8401B112200F064FFDD
:1001DC0000A8DFF8381B182200F06EFF0027DFF8AC
:1001EC00C00C0068C00740F10B81DFF8240B0068DD
:1001FC0006000020DFF81C1B0860DFF81C0B0068F1
:10020C00C00009D5DFF8100B006830F08050DFF823
:10021C00081B0860761E15E0FFF7BDFFDFF8800CA9
:10022C00006840070ED4DFF8EC0A006842F2107147
:10023C00884207D2DFF8DC0A0068401CDFF8D41AC9
:10024C000860EBE7DFF8CC0A006842F211718842D3
:10025C0005D300F0D7F806A800F070FFD0E0DFF867
:10026C00400C006830F00400DFF8341C0860DFF844
:10027C00780B00680078A42840F08680DFF8980A94
:10028C00006850F08060DFF8901A0860FFF783FF79
:10029C00DFF80C0C0068C0070ED5DFF8780A006890
:1002AC0042F21071884207D2DFF8680A0068401CDD
:1002BC00DFF8601A0860EBE7DFF85C0A006830F0E2
:1002CC008060DFF8541A0860DFF8D40B006830F057
:1002DC000400DFF8CC1B0860DFF8380A006842F233
:1002EC001071884246D2DFF8280A0068861BDFF8B6
:1002FC00F80A00680078040000F09AF8DFF8E80AC1
:10030C0000680078801C0500EDB2A81C864207D05E
:10031C00DFF8040A006850F00100DFF8FC190860EF
:10032C00DFF8C40A00680078444000F081F86D1EC4
:10033C00EDB2002DF4D1DFF8B00A00680078E4B219
:10034C0084420ED1DFF8A80A0078401CDFF8A01A0E
:10035C000870DFF8A80A0068401CDFF8A01A0860D3
:10036C001BE0DFF8840A0068DFF8801A086000F0F0
:10037C0073F812E0DFF8880A0068401CDFF8801A76
:10038C0008600120070008E0DFF8780A0068401CCC
:10039C00DFF8701A086001200700FFB2002F2DD083
:1003AC0000A800F0CBFEDFF8F80A0068C00710D5F3
:1003BC00DFF86009006842F21071884209D2DFF858
:1003CC0054090068401CDFF84C190860FFF7E3FE85
:1003DC00E9E7DFF8EC080068DFF80C1A0860DFF8D2
:1003EC00E0080068DFF8041A0860DFF8B40A006857
:1003FC0030F00600DFF8A81A086001E000F018F8E9
:10040C000BB0F0BD72B6DFF8B408DFF8B4180860B2
:10041C00DFF8A808DFF8D0190860DFF8A008DFF8CB
:10042C00CC1908600020DFF8C819087062B6704754
:10043C00DFF8B4090068401CDFF8AC190860DFF87D
:10044C00A8090068DFF8741A884204D1DFF86C0838
:10045C00DFF8941908607047DFF890090068401CB9
:10046C00DFF888190860DFF884090068DFF84C1A97
:10047C00884204D1DFF84408DFF87019086070472F
:10048C0038B5DFF8BC0A0068C00109D5DFF8B40A3A
:10049C0000F054FEDFF8B00ADFF8B01A0860B6E0DE
:1004AC005FF40010DFF8A81A0860DFF8A80A00F063
:1004BC0045FE0020DFF8A01A08600020DFF89C1A27
:1004CC0008600020DFF81C1908701020DFF81419E0
:1004DC0048700020DFF80C198870FF20DFF8041931
:1004EC00C870FF20DFF8FC1808710120DFF8F41841
:1004FC0048711020DFF8EC188871CD20DFF8E41873
:10050C00C8710C20DFF8DC1808723720DFF8D4181B
:10051C0048720320DFF8CC1888720420DFF8401AE8
:10052C000870DFF8400ADFF8381A48605FF4800082
:10053C00DFF82C1A88600120DFF8241A08730220D7
:10054C00DFF81C1A48730FF24530DFF8141A0861F3
:10055C000FF25130DFF8081A4861DFF86007DFF856
:10056C00001A8861DFF85807DFF8F419C8614FF4F6
:10057C008070DFF8EC190884DFF8E40901F086F9E3
:10058C00DFF8E41908600020DFF814190860FFF7A1
:10059C008FFDDFF8D8090078C00617D5DFF8D00931
:1005AC0000F0CCFDDFF8CC0900F0C8FD00F0D8FD60
:1005BC00DFF8C409006830F48030DFF8BC1908603B
:1005CC000FF64500DFF88419086020E0DFF8AC096D
:1005DC0000F0B4FD5FF0307004005FF0F0700500C7
:1005EC00DFF89C090460DFF89C090460DFF89809C7
:1005FC000560DFF870090560DFF890090460DFF82A
:10060C00900905600FF61520DFF84019086031BD20
:10061C0080B5DFF838090068804701BDF0B599B0A6
:10062C000400DFF87009076810A8DFF86C192122A4
:10063C0000F032FD0AA8DFF86419152200F02CFD39
:10064C0005A8DFF85C19122200F026FD00A8DFF8DF
:10065C005419112200F020FDDFF8BC06006810F0E0
:10066C00406F04D010A800F069FD00209AE0002033
:10067C00DFF8A01608605FF40000DFF8981308603C
:10068C00DFF81C080068C0070ED4DFF88806006885
:10069C0042F21071884207D2DFF878060068401CDD
:1006AC00DFF870160860EBE7DFF86806006842F2C6
:1006BC001171884209D35FF40000DFF83C17086021
:1006CC000AA800F03BFD00206CE0FFF764FDDFF8AA
:1006DC00D007006840070ED4DFF83806006842F2F5
:1006EC001071884207D2DFF82C060068401CDFF836
:1006FC0024160860EBE75FF40000DFF8FC160860D6
:10070C00DFF81006006842F21171884204D30AA87F
:10071C0000F014FD002045E0DFF8CC0600680078FE
:10072C000500EDB2A42D09D1DFF8EC05006850F0FE
:10073C008050DFF8E4150860002033E0FFF778FE06
:10074C00FFF78AFEDFF85807006830F00400DFF886
:10075C0050170860EDB2A52D20D1DFF8BC0500685C
:10076C0050F00060DFF8B01508602078C01C06005F
:10077C0022003100DFF8F007006801F02BF9DFF8F8
:10078C0028180860DFF820080068002801D0012034
:10079C0008E005A800F0D2FC002003E000A800F05F
:1007AC00CDFC002019B0F0BDF0B589B004000D00EF
:1007BC0000260127DFF8DC070068009001A8DFF8AD
:1007CC00EC171A2200F068FCDFF82806006800908D
:1007DC00DFF8CC060068C00709D5F6B2002E06D1AA
:1007EC004FF47A7100A800F039FC0600F0E7F6B27D
:1007FC00002E20D1DFF88007006830F00060DFF8B1
:10080C007817086000F0DDFA0020DFF89C1708600C
:10081C00DFF8E00500680090DFF884060068C00788
:10082C0009D4F6B2002E06D14FF47A7100A800F06C
:10083C0015FC0600F0E7F6B2002E1BD1FFF7C0FC4A
:10084C00DFF8AC050078002814D0DFF8A0050068AC
:10085C00807840280ED1DFF8940500680079E4B266
:10086C00A04207D1DFF8840500684079002801D147
:10087C000020070000F0D0F8F6B2002E02D001A83C
:10088C0000F05CFC3800C0B209B0F0BD80B5DFF8F8
:10089C0020070068401CDFF818170860FFF77BFC86
:1008AC0001BD000080B5DFF868040068401CDFF86B
:1008BC0060140860DFF808060068401CDFF80016BA
:1008CC000860DFF8FC050068DFF8F015884204D1F9
:1008DC00DFF8F005DFF8E8150860DFF89C06006823
:1008EC00400101D5FFF757FC01BD10B40100087899
:1008FC00821CA5200023DBB2D2B2934204D20C7826
:10090C006040491C5B1CF6E7C0B210BC70472DE977
:10091C00F0418AB00400002600A8DFF898162822BF
:10092C0000F0CAFBDFF890060068401CDFF8881660
:10093C0008601C2001F0FCFB0700002F04D100A86C
:10094C0000F0FCFB002043E02078C01C05000020D8
:10095C00C0B2EDB2A84206D2C0B2015DC0B2C2199B
:10096C001171401CF4E7DFF88C040068386000203B
:10097C00B861DFF8E805006800280AD1DFF8DC056B
:10098C000760DFF838060068401CDFF83016086096
:10099C001DE0DFF8C80500688046D8F8180000286C
:1009AC0003D0D8F81880761CF7E7F6B2202E09D2BF
:1009BC00C8F81870DFF804060068401CDFF8FC1556
:1009CC00086004E000A800F0B9FB002000E0012062
:1009DC000AB0BDE8F08110B5DFF87C05006800288E
:1009EC0014D0DFF8740500680400DFF86C050068AB
:1009FC000069DFF864150860200001F0F1FBDFF8F6
:100A0C00C0050068401EDFF8B815086010BD000076
:100A1C00704F0800340E0E4030B585B0DFF8D003AF
:100A2C000078002801D1012046E1DFF89805006824
:100A3C00401CDFF890150860DFF8B4030078401E06
:100A4C00DFF8AC130870FFF707FDDFF8A0030068B0
:100A5C0000780400E4B2122C01DB01202CE100250B
:100A6C00EDB2E4B2E01C85420ADADFF880030068DC
:100A7C00007800A9EDB26854FFF7EEFC6D1CEFE7AF
:100A8C009DF801003E2800F0F58040280CD04E283F
:100A9C0000F0E2804F2800F0D280522800F0E9806C
:100AAC006F2800F0FB8000E19DF80300012859D06D
:100ABC009DF8030041282DD0422826D04B2802D087
:100ACC004C2815D034E0DFF8000500F037FBDFF8D8
:100ADC00A804006850F40020DFF89C140860DFF8CC
:100AEC009804006830F48020DFF88C14086023E050
:100AFC00DFF8D80400F022FBDFF87C04006830F447
:100B0C00C010DFF87414086016E0DFF8C40400F0BD
:100B1C0015FB11E0DFF8BC0400F010FBDFF8580403
:100B2C000068DFF8B4140840DFF84C14086003E0E8
:100B3C00DFF8A80400F002FB9DF80400002804D1A3
:100B4C00DFF82C0400F0FAFA78E0DFF8940400F0F7
:100B5C00F5FADFF82404006850F00200DFF81814EE
:100B6C0008606BE09DF8040000280ED001284CD0E2
:100B7C0002280BD0032830D0052836D0062840D0C8
:100B8C00072846D0082824D050E057E0DFF854045A
:100B9C000078401CDFF84C140870DFF8480400782B
:100BAC00002812D1DFF840040078401CDFF838141C
:100BBC000870DFF834040078002806D1DFF82C0424
:100BCC000078401CDFF824140870022000F07AF83A
:100BDC0034E0082000F076F830E0824840781028A5
:100BEC0002D1032000F06EF828E0DFF88C030068D7
:100BFC0050F08070DFF880130860052000F062F878
:100C0C001CE0062000F05EF818E0012000F05AF815
:100C1C0014E0DFF8DC0300F091FADFF85C03006805
:100C2C0030F4C010DFF85013086007E0DFF8480319
:100C3C00006850F00400DFF8401308603BE00DF151
:100C4C000301012000F06AF866484078002802D1C0
:100C5C00002000F037F82EE00DF10301012000F028
:100C6C005DF860484078002802D1002000F02AF896
:100C7C0021E020E00020C0B20A2808DA00A9C0B2A6
:100C8C0041188978BB4AC0B28154401CF3E7B7487D
:100C9C00006850F01000B54908600CE0B6480068D8
:100CAC0050F48030B449086005E0B348006850F057
:100CBC000800B1490860002005B030BD6412002066
:100CCC001C1800201CB50400FF208DF800008DF8C6
:100CDC000140FF208DF80200FF208DF80300FF205B
:100CEC008DF80400C14800788DF80500BE480078E6
:100CFC008DF80600BB4800788DF8070000A902208B
:100D0C0000F00CF813BD0000D04E0800704E080027
:100D1C0008180020FC170020F01700202DE9F041E6
:100D2C008CB004000D005FF0000800A8B1492B2224
:100D3C0000F0B2F9142001F0FBF90600002E04D1EA
:100D4C0000A800F0FBF9002038E00020C0B2082811
:100D5C0006DAC0B2415DC0B282195171401CF5E790
:100D6C002448006830603471002030617A48006893
:100D7C00002807D17848066091480068401C9049CB
:100D8C0008601AE07448006807003869002803D02E
:100D9C003F6918F10108F8E75FFA88F8B8F1200FFD
:100DAC0006D23E6186480068401C8549086004E014
:100DBC0000A800F0C3F9002000E001200CB0BDE851
:100DCC00F08110B56548006800280AD063480068B7
:100DDC00040062480068806960490860200001F0E6
:100DEC00FFF910BDC817002020180020241800207F
:100DFC003019002098180020300E0E4038180020B2
:100E0C000C1800201018002070B5012400255A4839
:100E1C000068000420D0784800F090F96D1C002682
:100E2C00F6B2042E12DA5448006820420BD07348F4
:100E3C00EDB2142101FB050000F080F94E4800686A
:100E4C00A0434D4908606400761CE9E74A480068F5
:100E5C00000C000448490860FFF7DEFD10480068EC
:100E6C00C00704D50FF23D003849086016E04E4823
:100E7C000068002812D13948006800280ED0374885
:100E8C000068001DFFF7CAFB002807D05C4800680B
:100E9C005C4908600FF231002C49086070BD0000FD
:100EAC00C418002080B558480068401C564908609A
:100EBC00FFF786F955482549086001BD64130020E9
:100ECC001C1800206412002010B53748006801F08F
:100EDC00C7F90400E4B22000001F01282ED8FFF748
:100EEC0070FF0020304908602348006830F0006033
:100EFC002149086046480068C0070BD54148006886
:100F0C0042F21071884205D23E480068401C3D49AF
:100F1C000860EFE73F48006842F21171884209D33C
:100F2C003D4800F00BF93A480068C00702D5FFF7BE
:100F3C0032F9F8E7354805490860FFE710BD0000B5
:100F4C00801800200401002029100800F817002048
:100F5C00100E0E4090020020F41700202C180020D8
:100F6C00C0160020000E0E40181800208418002017
:100F7C00E8030020D4170020F0170020DC0100202B
:100F8C00040C0E40000C0E40040E0E40140C0E40CF
:100F9C00140E0E409C180020184C0800884E0800B7
:100FAC00E44E0800F84E080014180020E44D080028
:100FBC0004180020C84B08004018002030180020EE
:100FCC00281800203C1800205C0300204803002057
:100FDC002003002078020020FEFFE3FF5C020020CB
:100FEC00F0030020331900203219002031190020A1
:100FFC000C4F08009C4B0800AC0300207000002034
:10100C00981800200018002034180020150E080035
:10101C00C4180020FC170020FC0100207047FEE7DC
:10102C00FEE7FEE7FEE7FEE7FEE7FEE7FEE7FEE78C
:10103C00FEE7FEE7FEE7FEE7FEE7FEE7FEE7FEE77C
:10104C00FEE7FEE7FEE7FEE7FEE7FEE7FEE7FEE76C
:10105C00FEE7FEE7FEE7FEE7FEE7FEE710B4020060
:10106C000C4800681468A04205D30A48006814684C
:10107C00001B030007E05FF0FF301468001B054CF9
:10108C002468201803008B4201D2002000E00120CC
:10109C0010BC70479818002062B38B0708D0521E02
:1010AC0011F8013B00F8013B00F024808B07F6D1CE
:1010BC00830740F0208000BF103A07D330B4B1E86A
:1010CC003810103AA0E83810F9D230BC530724BFBE
:1010DC00B1E80810A0E8081044BF51F8043B40F8F0
:1010EC00043BD20724BF31F8022B20F8022B44BF5B
:1010FC000B7803707047083A07D3B1E80810083A28
:10110C0040F8043B40F804CBF7D25307E4E710B4A3
:10111C0050F8041B81B102681218001D50F8043BF2
:10112C00DC0744BFA9F10104E31852F8044B43F85F
:10113C00044B091FF9D1EBE710BC704770B50400E4
:10114C00250000262878002802D0761C6D1CF9E7B3
:10115C0022003100DFF87806006801F099FA70BDC2
:10116C0080B5DFF870060088ADF8000000AA0221F7
:10117C00DFF85C06006801F08BFA01BD2DE9FE4337
:10118C00040000250026DFF850860020C0B20A2893
:10119C0019DAB4FBF8F1303100AAC0B2815400A9BD
:1011AC00C0B2415C302901D001210D00EDB2002DFF
:1011BC0000D0761CB4FBF8F108FB11440A21B8FBF3
:1011CC00F1F8401CE2E7EDB2002D01D10120060040
:1011DC00F6B2300000F0ACFF8146B9F1000F08D137
:1011EC000220DFF8F81508700FF2B150DFF8F01597
:1011FC000860092007003000C0B2002809D000A9FF
:10120C00795CC0B210EB090202F8011C7F1E401E73
:10121C00F2E74A46F6B23100DFF8B405006801F097
:10122C0037FA484600F0DCFFBDE8F78370B5A4B090
:10123C0000A8DFF8B8150522FFF72EFF11A8DFF87C
:10124C00B0154822FFF738FF0124012502A8DFF86A
:10125C00A4153C22FFF730FF11A8FFF76FFF002603
:10126C00F6B2062E12DADFF89005006804420AD1B5
:10127C000020050002A8F6B20A2101FB0600FFF7C8
:10128C005DFFFFF76DFF6400761CE9E7EDB2002D02
:10129C0002D000A8FFF752FFFFF762FF24B070BD29
:1012AC0000B585B0002080B2802806D20021DFF87E
:1012BC004C2580B28154401CF5E70020DFF8241542
:1012CC0008700020C0B2802806DA0021DFF818254B
:1012DC00C0B28154401CF5E7DFF82005DFF820157B
:1012EC000860DFF81805DFF81C150860DFF8180532
:1012FC00DFF81815086002208DF80000DFF8FC04F8
:10130C000190DFF8000502908020ADF802000FF28A
:10131C005900039000A801F007F9DFF8B414086035
:10132C00DFF8AC040068002805D10FF27140DFF83B
:10133C00B014086010E0DFF8D804FFF7FFFEDFF808
:10134C00B804006850F00400DFF8AC1408600FF229
:10135C005D20DFF88C14086005B000BD80B5DFF8A7
:10136C0080040068804701BDDFF898040068401CC9
:10137C00DFF890140860DFF88C040068DFF8941430
:10138C00884204D1DFF87404DFF8781408607047E1
:10139C0010B592B00AA8DFF880141922FFF77CFE72
:1013AC003A208DF8020020208DF803000A208DF8D9
:1013BC0024000D208DF8250000208DF826000AA8A9
:1013CC00FFF7BCFE0024E4B2082C2CDAE4B20A2CA1
:1013DC0007DBE4B20A2094FBF0F030308DF800000B
:1013EC0002E030208DF80000E4B20A2094FBF0F10A
:1013FC0000FB114030308DF801000020C0B22028D5
:10140C000CDADFF81814E4B251F83410C0B2415CB5
:10141C0000AAC0B282181171401CEFE700A8FFF7B8
:10142C008DFE641CCFE7FFF79BFE12B010BD10B50C
:10143C0084B000A8DFF8E8131CC91CC00C390C38A8
:10144C0000A8FFF77BFE1FBD10B584B000A8DFF825
:10145C00D4131CC91CC00C390C3800A8FFF76EFE45
:10146C00DFF8C4030078C0070CD5DFF8BC030068B4
:10147C0040084000DFF8B0130860DFF8B003FFF756
:10148C005DFE3BE0DFF8A003006850F00100DFF8E0
:10149C0098130860DFF89803FFF750FE002001F066
:1014AC00E9FA012001F0E6FA022001F0E3FA032048
:1014BC0001F0E0FA042001F0DDFA052001F0DAFA7F
:1014CC00062001F0D7FA072001F0D4FA002001F031
:1014DC00D1FA012001F0CEFA022001F0CBFA032060
:1014EC0001F0C8FA042001F0C5FA052001F0C2FA97
:1014FC00062001F0BFFA072001F0BCFA1FBD10B5A1
:10150C000400E4B2572C02D1002001F00EFBE4B22F
:10151C00502C02D1012001F008FBE4B2422C02D184
:10152C00022001F002FBE4B2432C02D1032001F0B3
:10153C00FCFAE4B2472C02D1042001F0F6FAE4B232
:10154C00592C02D1052001F0F0FAE4B24F2C02D153
:10155C00062001F0EAFAE4B2522C02D1072001F085
:10156C00E4FA10BD00B589B000A8B2492322FFF7F8
:10157C0093FD00A8FFF7E2FDAB480078C00709D542
:10158C00A948006840084000A7490860A748FFF731
:10159C00D5FD08E0A448006850F00100A24908609D
:1015AC00A348FFF7CBFD09B000BD000038B50024FF
:1015BC009348006893490968884200F07F80E4B240
:1015CC00002C7BD18E480068007805009648007886
:1015DC00C00703D52800C0B2FFF791FFEDB2280079
:1015EC00082802D00D2821D026E07E48007800285B
:1015FC0009D07C480078401E7A49087000207A494E
:10160C00784A12785054814800687F49884209D042
:10161C007E480068401E7D49086087480088401E4F
:10162C00854908808548FFF789FD38E001200400D2
:10163C000FF29D006A4908606A480078802808DA31
:10164C006948684909780D5466480078401C65491A
:10165C0008702900C9B25E48006801F001F86B48B7
:10166C000068057069480068401C68490860724849
:10167C000088401C704908806448006870498842A2
:10168C000DD3EDB20D2D0AD05F48604908600020E3
:10169C00694908806B48FFF751FD6B490860584851
:1016AC000068401C564908605548006859498842F2
:1016BC00FFF47EAF51485249086079E762480068F0
:1016CC00002803D06048006800F0CAFD31BD00005E
:1016DC0070B50124002005004B48EDB2285C5B4935
:1016EC00EDB2695C884201D0002004006D1CE4B2AC
:1016FC00002C02D0EDB2042DEEDBE4B2002C2ED087
:10170C00002004004048EDB22856303806006D1C0D
:10171C0076B2002E23D476B20A2E20DA0A2000FBF1
:10172C0006F04B4908703848EDB2285630380600A0
:10173C006D1C76B2002E12D476B20A2E0FDA444803
:10174C00007830184249087041480078082806DAB9
:10175C002D48EDB2285C0D2801D101200400E4B223
:10176C00002C04D00FF21D001D49086005E039481B
:10177C00FFF7E4FC38481A490860234823490860FD
:10178C0070BD000080B534481549086023483049C5
:10179C00097810EBC1004068804701BD80B5224834
:1017AC00006850F00040204908602C48FFF7C6FC48
:1017BC000A480078FFF7E2FCFFF7D2FC00201E4934
:1017CC00088011481149086023480549086001BD8B
:1017DC00641800207A3D080000CA9A3B3619002094
:1017EC00601800203519002064140020A04F080058
:1017FC00184B0800604B080084180020E4140020EB
:10180C00701800206C180020E415002074180020BB
:10181C00C000002064150020004E08004401002088
:10182C00404F08004C4F08005C18002018040020A2
:10183C00100400205C4D08002C190020200400200E
:10184C00241600201C020020681800200004002030
:10185C003719002084030020B9150800A8020020C5
:10186C00012110F01F029140DFF8502840B24309CB
:10187C0042F823107047012110F01F029140DFF84D
:10188C00402840B2430942F8231070472DE9F04735
:10189C0004002078022804D034D3042821D010D39B
:1018AC0030E0DFF82008050050200600DFF81808AB
:1018BC000700082080467FF0080081461A208246E7
:1018CC0022E0DFF80808050060200600DFF80008B9
:1018DC000700002080465FF0FF30814630208246B2
:1018EC0012E0DFF8F007050050200600DFF8E807EB
:1018FC0007005FF4002080465FF0FF308146002037
:10190C00824601E0002063E02869C00201D5002076
:10191C005EE0DFF8C8070068012195F926209140A8
:10192C000843DFF8B817086060686860A068A860B2
:10193C00207B2873607B6873206968616069A8618B
:10194C00A069E861E0692862208CA884286950F4B9
:10195C008010286128680660286847602868C0F8ED
:10196C0008802868C0F80C902868C0F820A0687B14
:10197C0001281BD1A0692968C1F80001A069401C8D
:10198C002968C1F8100101202968C1F8040101205F
:10199C002968C1F814010020286240F2011029685E
:1019AC00C1F820015FF4002029688860687B022858
:1019BC0003D1DFF82C072968886095F9260040B21E
:1019CC00FFF759FF95F9260040B2FFF749FF2800B1
:1019DC00BDE8F087F8B504000D00160032002900B0
:1019EC0014F1280000F058FC0700002F01D1002052
:1019FC0007E0DFF8F4060068002801D500F087F84E
:101A0C003800F2BD70B5DFF8E806DFF8B8160860EC
:101A1C000020DFF8B01648600020DFF8A8168862B6
:101A2C000020DFF8A016C8610020DFF89816888423
:101A3C000020DFF8901608620020DFF88816086195
:101A4C000D20DFF8801681F82600DFF8A806DFF8F5
:101A5C007C1608600020DFF8741648600020DFF860
:101A6C006C1688620020DFF86416C8610020DFF86D
:101A7C005C1688840020DFF8541608620020DFF81A
:101A8C004C1608610E20DFF8441681F82600DFF8AA
:101A9C006806DFF8401608600020DFF8381648604A
:101AAC000020DFF8301688620020DFF82816C861A5
:101ABC000020DFF8201688840020DFF81816086252
:101ACC000020DFF8101608610F20DFF8081681F8E7
:101ADC002600DFF8F005DFF8241608608024FF25C7
:101AEC00DFF808662A002100300001F057F90FF2E8
:101AFC000D40DFF8F0150860DFF80406FFF71EFB59
:101B0C0070BD80B5DFF8DC050068804701BD80B58D
:101B1C00DFF8F005006850F00100DFF8E815086008
:101B2C00DFF8A005DFF8D4150860DFF8D8050078D9
:101B3C00C0070FD5DFF8AC0500688047DFF8C80593
:101B4C000068DFF8C81508600121DFF8C005FFF751
:101B5C0085FAEAE701BD80B5DFF87005DFF8B0154E
:101B6C000860DFF8B405DFF8AC150860DFF8AC05E9
:101B7C000068401CDFF8A415086000F016F801BDE1
:101B8C0080B5DFF85005DFF888150860DFF89005A0
:101B9C00DFF880150860DFF88C050068401CDFF862
:101BAC008415086000F001F801BD70B5DFF8600520
:101BBC000068006840690600DFF85405006800689A
:101BCC000069000338D5300336D5DFF844050068CA
:101BDC004068C06BDFF8381509688968084214D171
:101BEC00DFF830050068006850F00100DFF82415BC
:101BFC0009680860DFF81C050068006830F0060012
:101C0C00DFF810150968086016E0DFF808050068B1
:101C1C00006840084000DFF8FC1409680860DFF831
:101C2C00F0040068407B012806D10120DFF8E014A5
:101C3C0009680968C1F80401DFF8D4040068006879
:101C4C000069800570D5B0056ED5DFF8C404006856
:101C5C00C06A401EDFF8B8140968C862DFF8B00427
:101C6C000068006880690400DFF8A4040068C06A9A
:101C7C00002825D0DFF898040068006B401CDFF8C2
:101C8C00901409680863DFF888040068006B00781A
:101C9C000400DFF87C040068007B012803D194FA6F
:101CAC00A4F0000E04002000C0B2DFF86414096830
:101CBC000968C861DFF8580400684069804733E060
:101CCC004FF40070DFF8481409680968C860DFF841
:101CDC0040040068006930F40010DFF8341409681F
:101CEC0008610421DFF828040068806A006800F0AD
:101CFC00B9FBDFF81C040068283000F04AFB012017
:101D0C00DFF80C14096809688860DFF808040068BB
:101D1C00006850F00200DFF8FC1309680860DFF877
:101D2C00F003006840698047DFF8E403006800684E
:101D3C000069C00737D5DFF8D80300680068406930
:101D4C00C00730D5DFF8C803006800688069C0B2EE
:101D5C000400DFF8BC030068007B012803D194FA6F
:101D6C00A4F0000E04002000C0B2FF2806D1DFF85A
:101D7C00B8030068401CDFF8B0130860DFF890036C
:101D8C000068006A00680470DFF888030068006867
:101D9C0050F00400DFF87C1309680860DFF870036A
:101DAC00006880698047DFF8680300680068006994
:101DBC00000762D5300760D5DFF854030068407B1C
:101DCC0000282BD10421DFF848030068806A0068E2
:101DDC0000F048FBDFF838030068283000F0D9FA2F
:101DEC00DFF82C030068006930F48000DFF8201362
:101DFC0009680861DFF8180300688068C44909683D
:101E0C00496808630220C24909680968C1F82001C1
:101E1C000820BF4909680968C8602EE0BD48006801
:101E2C00006850F00400BB4909680860B8480068B5
:101E3C000068D0F81001401CB54909680968C1F860
:101E4C001001B34800680068D0F80001B049096877
:101E5C00C969AF4A1268928C5118884207D1AC48B4
:101E6C000068C069AA4909680968C1F80001012025
:101E7C00A74909680968C1F81401A54800680068F9
:101E8C000069C00639D5F00637D50421A048006892
:101E9C00806A006800F0E6FA9D480068283000F07F
:101EAC0078FA9B480068006930F40010984909687A
:101EBC0008614FF40070964909680968C1F820015F
:101ECC001020934909680968C860002005009048F3
:101EDC00006800684069800503D4642D01D26D1C34
:101EEC00F5E78B480068407B002806D188480068DD
:101EFC008068874909684968086370BD10B57F48D8
:101F0C000068806A002800F0B5807C480068006991
:101F1C0010F4C00F40F0AE8078480068407B002879
:101F2C0006D1764800688068744909684968486336
:101F3C0072480068806A08306C4988422CD10321B1
:101F4C006E480068806A006800F08CFA6B48006884
:101F5C00006950F4800069490968086167480068A5
:101F6C00806A0830654909680968C1F8000163484E
:101F7C000068806A4068614909680968C1F8040111
:101F8C0008205E4909680968886001205B49096876
:101F9C000968C1F820016DE0022158480068806A88
:101FAC00006800F05FFA55480068006950F40010B2
:101FBC0052490968086151480068407B02283BD1AE
:101FCC004E480068806A40684C490968C8624B48B2
:101FDC000068806A08304949096808634748006806
:101FEC00006B0078040045480068007B012803D191
:101FFC0094FAA4F0000E040008204049096809680E
:10200C00086040203D490968096808602000C0B29A
:10201C003A4909680968C8610120384909680968A2
:10202C00C8604FF400703549096809688860334806
:10203C000068406980471DE030480068806A0830BD
:10204C002E4909680968C1F808012C480068806AA3
:10205C0040682A4909680968C1F80C011020274911
:10206C000968096888604FF4807024490968096818
:10207C00C1F820012148006890F826000D2804D0F2
:10208C0015D30F2809D004D311E010481B49086060
:10209C0013E01048194908600FE00A481749086016
:1020AC0018480068400840001649086005E01F48C1
:1020BC00FFF744F803481149086010BD00E100E047
:1020CC0080E200E024160020C008400058160020D2
:1020DC00CE1845008C160020FF18410010040E404D
:1020EC0001000800C818002080180020641500208A
:1020FC00000009400040094000800940D41800202D
:10210C00D8020020D018002098180020CC180020ED
:10211C00D8180020DC180020C0180020E01800207F
:10212C00C4180020E4180020E8180020F002002059
:10213C0070B5054605F10F00C408E400C046C04662
:10214C00A54232D2082C04D2082402E0083000F058
:10215C0047F82248026811000CD1011D0A6802B32D
:10216C001368A34238BF111DF8D310E01D68A542B7
:10217C000DD2191D0B68002BF8D11268011D00E05F
:10218C00191D0B6893420CD01D68A542F8D361B1A0
:10219C000D682A68A2F10803A3420AD26A680A6091
:1021AC000FE000F03FFE0028D0D1C046C046002012
:1021BC0070BD63190B60121B6E685E600B681A6051
:1021CC002C60096800291DBF4A68002A091D0021DE
:1021DC000160C046C04605F1080070BDE81700203C
:1021EC0000B9704738B5A0F108042068082833D32B
:1021FC0010F0070F30D1C046C0461848416809B1ED
:10220C008C4203D26160446017E019464B680BB1F5
:10221C00A342FAD30B685D18AC421BD3A54204D180
:10222C002268D2180A600C4607E04A681AB1236883
:10223C001B199A420ED362604C60616851B12268DE
:10224C0013198B4206D100230360086880182060A4
:10225C0048686060C046C04631BD0000E8170020E9
:10226C000100FF209A4A13688B4204D0994B9A4282
:10227C0001D00C32F7E7974B9A420BD01379180028
:10228C00C0B2042802D0C0B2052803D100231360C9
:10229C0000231371C0B270472DE9F84F04000D00F4
:1022AC001600AB465FF000098B480078102807D168
:1022BC008A48006850F0010088490860002066E0F8
:1022CC00BBF1000F62D084480078401C8249087032
:1022DC00814800780E2806DB8048006850F0020028
:1022EC007E49086005E07D48006830F002007B49BB
:1022FC0008607B4882469AF80000002802D11AF147
:10230C00900AF8E700208AF800001AF10400070090
:10231C00BBF1810F04D380208146BBF1800B02E01E
:10232C00D946002083466F4800683860C7F804908F
:10233C000020C7F8880000207968884205D23178DF
:10234C00C2191172761C401CF6E72068002801D1D6
:10235C0027600AE020688046D8F88800002802D060
:10236C00D8F88880F8E7C8F888705E48006800F0F4
:10237C0087F85C480068401C5A4908605948006856
:10238C0000289DD101205749086099E73868BDE8BD
:10239C00F28F0268002A06D1504A126852F00402E9
:1023AC004E4B1A601FE04E4A11000A1D03689A42F8
:1023BC0004D04D4A914201D09031F6E74A4A9142FD
:1023CC0006D1464A126852F00802444B1A600AE0E1
:1023DC000268D2F88820026001220A703E4A127804
:1023EC00521E3D4B1A70704700203B49087001206B
:1023FC003C490860002080B2102808DA0121384AD4
:10240C0080B2902303FB00221170401CF3E70020E4
:10241C0080B2402816DA00212D4A80B20C2303FB2F
:10242C000022116000212A4A80B20C2303FB0022F7
:10243C0011710021264A80B20C2303FB002291600B
:10244C00401CE5E722482949086000202349086020
:10245C000FF2610026490860704780B52448006877
:10246C00804701BD1A4A1368834204D0194B9A4223
:10247C0001D00C32F7E7174B9A4200D0117170471C
:10248C001A49096808600121184A12681171194922
:10249C000968164A12689160144909680C31134A8C
:1024AC001160124909680B4A914202D108490F4A3E
:1024BC001160704710480068401E0F4908600E48B4
:1024CC000068002803D14FF47A700B4908607047FC
:1024DC00400D0020401000203819002088180020E2
:1024EC004004002090180020400D0020941800207B
:1024FC008C1800209818002024040020012110F0D2
:10250C001F029140DFF8FC2440B2430942F823102B
:10251C007047012110F01F029140DFF8EC2440B20B
:10252C00430942F8231070472DE9F0470400207846
:10253C00012806D046D3032823D012D3042830D048
:10254C0040E0DFF8C804050050200600DFF8C004A6
:10255C000700002080465FF0FF3081461A2082463B
:10256C0032E0DFF8B004050050200600DFF8A004CC
:10257C000700082080467FF0080081461A2082461A
:10258C0022E0DFF89404050060200600DFF88C04DC
:10259C000700002080465FF0FF30814630208246E5
:1025AC0012E0DFF87C04050050200600DFF874040C
:1025BC0007005FF4002080465FF0FF30814600206A
:1025CC00824601E0002049E02879C00701D50020AF
:1025DC0044E0DFF854040068012195F92220914071
:1025EC000843DFF8441408606068686160882884D8
:1025FC00A068A861E068E861686850F00100686054
:10260C0028680660286847602868C0F80880286831
:10261C00C0F80C902868C0F820A060682968C1F840
:10262C0000016068401C2968C1F81001012029686C
:10263C00C1F8040101202968C1F8140140F201100D
:10264C002968C1F8200195F9220040B2FFF761FF1B
:10265C0095F9220040B2FFF751FF2800BDE8F08742
:10266C0070B582B004000D008DF8005000AA012155
:10267C0014F10800FFF710FE0600002E06D0DFF85C
:10268C00B0030068002801D500F09BF8300076BD3F
:10269C00F8B504000D0016003200290014F10800F2
:1026AC00FFF7FAFD0700002F06D0DFF8840300685F
:1026BC00002801D500F085F83800F2BD0020DFF8C5
:1026CC0074130860DFF87003DFF840130860002013
:1026DC00DFF8381388600020DFF8301348610020E1
:1026EC00DFF8281308840020DFF82013886100200D
:1026FC00DFF8181348600820DFF8101381F8220067
:10270C00DFF83803DFF80C1308600020DFF804133F
:10271C0088600020DFF8FC1248610020DFF8F4121A
:10272C0008840020DFF8EC1288610020DFF8E41246
:10273C0048600D20DFF8DC1281F82200DFF800037E
:10274C00DFF8D41208600020DFF8CC12886000207B
:10275C00DFF8C41248610020DFF8BC1208840020A6
:10276C00DFF8B41288610020DFF8AC1248600E204C
:10277C00DFF8A41281F82200DFF8C802DFF8A012FB
:10278C0008600020A64988600020A5494861002007
:10279C00A34908840020A24988610020A049486010
:1027AC000F209F4981F822009848A74908600FF232
:1027BC007D109E490860704780B59C480068804732
:1027CC0001BD80B59B48006850F001009949086034
:1027DC008E489D49086097480078C0070BD59348F0
:1027EC000068804799480068994908600121984819
:1027FC00FEF734FCEFE701BD80B5844895490860CD
:10280C0095489649086096480068401C94490860B1
:10281C0000F010F801BD80B57E488E4908609148E3
:10282C008E49086090480068401C8F49086000F091
:10283C0001F801BD80B58748006800680069000791
:10284C0038D58448006800684069000732D5834851
:10285C000068006850F002008049096808607D48F3
:10286C0000680068D0F81001401C7A4909680968B2
:10287C00C1F81001774800680068D0F8100175495C
:10288C0009684969734A1268128C5118884207D139
:10289C007048006840696F4909680968C1F81001FF
:1028AC006C480068C069804701206A49096809685A
:1028BC00C1F814016748006800680069C00632D589
:1028CC006448006800684069C0062CD50421614842
:1028DC00006880680068FFF7C5FD5E480068083036
:1028EC00FFF757FD5B480068406830F40010594909
:1028FC00096848604FF40070564909680968C1F8C6
:10290C0020011020534909680968C86057480078AD
:10291C00002805D055480078401E5449087002E044
:10292C005348FEF70BFC01BD0000000080B5464883
:10293C0000688068002836D04348006840688002F0
:10294C0031D402214048006880680068FFF78AFD96
:10295C003D480068406850F400103B4909684860E5
:10296C003948006880680830374909680968C1F837
:10297C00080135480068806840683349096809686F
:10298C00C1F80C0110203049096809688860374883
:10299C000078401C354908704FF480702A4909684A
:1029AC000968C1F820012848006890F8220008281E
:1029BC0006D00D2808D00E280AD00F280CD01DE008
:1029CC001448214908601CE013481F49086018E0AE
:1029DC0013481D49086014E00C481B490860144852
:1029EC000068002809D521480078002805D1114835
:1029FC000068400840000F49086002E00348124993
:102A0C00086001BD00E100E080E200E0E416002077
:102A1C00C0084000081700202C170020CE184500D5
:102A2C0050170020FF18410010040E40F41800202D
:102A3C0080180020FC18002000060E400000094001
:102A4C00004009400080094000190020981800201F
:102A5C00F818002004190020EC1800200819002098
:102A6C000C190020F0180020101900203C1900202F
:102A7C00C44D080010B4DFF80423C0B20A2303FBD2
:102A8C000022D279012A0CD1DFF8F422DFF8EC32E3
:102A9C00C0B20A2404FB00331B7A12EB8302110030
:102AAC0009E0B84AB54BC0B20A2404FB00331B7AC8
:102ABC0012EB83021100B44AC0B252F820200A6013
:102ACC000022AE4BC0B20A2404FB00331A7010BCB7
:102ADC00704710B4A94AC0B20A2303FB0022D27972
:102AEC00012A0AD1A74AA54BC0B20A2404FB003321
:102AFC001B7A12EB8302110009E0A14A9F4BC0B272
:102B0C000A2404FB00331B7A12EB830211009E4A49
:102B1C00C0B252F820200A600022984BC0B20A249E
:102B2C0004FB00331A7010BC70479849934AC0B22A
:102B3C000A2303FB0022127A11EB82010A68924BE2
:102B4C00C0B253F820305A400A6070472DE9F0416A
:102B5C0082B04FF47A644FF4FA75601B1421B0FB09
:102B6C00F1F61427FFB2002F30D05FF028081FFABF
:102B7C0088F8B8F1000F0DD085480068009001214D
:102B8C0000A8FEF76BFA0028F9D000F044F8B8F171
:102B9C000108ECE7FFB2142F06D140F2DC5100A87B
:102BAC00FEF75CFA0028F8D00020C0B20B2809DA36
:102BBC00FFB2791E714AC0B20A2303FB0022518076
:102BCC00401CF2E7A41B75197F1ECBE700F023F81D
:102BDC00C82100A8FEF742FA0028F9D00020C0B2A4
:102BEC000B2804DA0021654A1170401CF7E7082015
:102BFC00FFF740FF0920FFF73DFF0A20FFF73AFFE0
:102C0C006448006850F00100624908606248FEF7B1
:102C1C0095FABDE8F38110B50024E4B20B2C80F2D8
:102C2C00AA805648E4B20A2101FB0400007801286E
:102C3C0072D15248E4B20A2101FB0400B0F902003F
:102C4C00002804D12000C0B2FFF743FF5CE04B48E2
:102C5C00E4B20A2101FB0400B0F90200142804D1EB
:102C6C002000C0B2FFF706FF4EE04448E4B20A2150
:102C7C0001FB04008088401E4049E4B20A2202FB9A
:102C8C00041188803D48E4B20A2101FB04008088CD
:102C9C00002839D13948E4B20A2101FB04008079BB
:102CAC0001281AD12000C0B2FFF713FF3348E4B259
:102CBC000A2101FB0400B0F90200D0F114002F49E5
:102CCC00E4B20A2202FB0411888000202B49E4B2F2
:102CDC000A2202FB0411887116E02000C0B2FFF733
:102CEC00C9FE2648E4B20A2101FB040040882349AE
:102CFC00E4B20A2202FB0411888001201F49E4B2CD
:102D0C000A2202FB0411887101201C49E4B20A2238
:102D1C0002FB041108702CE01848E4B20A2101FBF4
:102D2C0004000078022824D11448E4B20A2101FBE3
:102D3C0004008088401E1149E4B20A2202FB0411EF
:102D4C0088800E48E4B20A2101FB04008088002828
:102D5C000FD12000C0B2FFF7E8FE0848E4B20A2108
:102D6C0001FB040040880549E4B20A2202FB04116D
:102D7C008880641C51E710BD00000000000000209A
:102D8C00300C0E40340C0E40B0010020380C0E40BC
:102D9C009818002084180020C002002062F30F2233
:102DAC0062F31F42401810F0030308D0C91A1FD356
:102DBC00DB0748BF00F8012D28BF20F8022D1300B7
:102DCC0030B414461546103928BF20E93C00FAD817
:102DDC00490728BF20E90C0048BF40F8042D8900A2
:102DEC0028BF20F8022D48BF00F8012D30BC7047D9
:102DFC00C91818BF00F8012DCB0728BF00F8012D0A
:102E0C00704750F8041B61B150F8042BD30744BF32
:102E1C00A9F101039A18002342F8043B091FFAD1C7
:102E2C00EFE770470749086808B10020704706486B
:102E3C00C008C00008600549C908C900091A01602A
:102E4C00704700BF28190020471900204039002086
:102E5C00012110F01F029140DFF8902740B2430986
:102E6C0042F823107047012110F01F029140DFF847
:102E7C00802740B2430942F823107047F8B504008C
:102E8C000D0016008DF80050DFF868070078102848
:102E9C0001D100205CE000AA0121DFF85C0700688A
:102EAC00001DFFF7F9F90700002F50D00020DFF8C4
:102EBC004C17DFF84C271278120150540120DFF820
:102ECC003C17DFF83C27127811EB02114860DFF851
:102EDC002C07DFF82C17097810EB01100472DFF8BF
:102EEC001C07DFF81C17097810EB01108672002004
:102EFC00DFF80817DFF80827127811EB0211487277
:102F0C000020DFF8F816DFF8F826127811EB021122
:102F1C00C860DFF8EC060078401CDFF8E416087097
:102F2C00DFF8D0060078401CDFF8C8160870DFF810
:102F3C00D0060078102803D10020DFF8C4160870E2
:102F4C00DFF8C0060068002801D500F041F9380010
:102F5C00F2BD2DE9F04104000D0016001F00DFF852
:102F6C0094060078102801D100205DE03200290081
:102F7C00DFF884060068001DFFF78EF98046B8F173
:102F8C00000F50D00020DFF87416DFF8742612788A
:102F9C00120150540120DFF86416DFF86426127811
:102FAC0011EB02114860DFF85406DFF8541609786B
:102FBC0010EB01100472DFF84406DFF844160978B0
:102FCC0010EB011087720020DFF83016DFF8302686
:102FDC00127811EB021148720020DFF82016DFF88E
:102FEC002026127811EB0211C860DFF81406007865
:102FFC00401CDFF80C160870DFF8F8050078401C50
:10300C00DFF8F0150870DFF8F8050078102803D108
:10301C000020DFF8EC150870DFF8E80500680028E0
:10302C0001D500F0D5F84046BDE8F08110B512246A
:10303C00DFF8D40500680121A1400843DFF8C8156A
:10304C0008600020DFF8C4150860DFF8C405DFF85D
:10305C00A81508600020DFF8A81508700020DFF81C
:10306C00B41508700020DFF88C150870DFF8A8057F
:10307C00DFF89C1508600020DFF8941548600020EC
:10308C00DFF88C1588600020DFF88415C860DFF845
:10309C00680500680068006850F08000DFF858157B
:1030AC00096809680860DFF874050068DFF87015B6
:1030BC0008600521DFF86805FDF7D0FF0028F8D07F
:1030CC00DFF86005DFF8301509680968086124200D
:1030DC00DFF824150968096808600020DFF8181566
:1030EC000968096848604FF4A170DFF80C1509688D
:1030FC00096848624FF63560DFF8FC140968096806
:10310C008862200040B2FFF7AEFE200040B2FFF70D
:10311C009FFE0020DFF8101508600020DFF80C156A
:10312C0008600FF2A510DFF80815086010BD80B517
:10313C00DFF8FC040068804701BD0120C0B2002804
:10314C001DD0DFF8E4140968002918D0DFF8DC146E
:10315C0009680978DFF8A024126812685163DFF857
:10316C00CC140968491CDFF8C4241160DFF8B814CA
:10317C000968491EDFF8B0241160401EDEE7DFF855
:10318C00A814096800291CD10421DFF86C241268EA
:10319C0012689162DFF86414DFF87824127811EB6E
:1031AC000211897A002912D1DFF84C1409680968D8
:1031BC00096851F00201DFF84024126812681160AE
:1031CC0005E00421DFF83024126812685162704760
:1031DC0080B5DFF83804006850F00100DFF82C14DB
:1031EC000860DFF838040068DFF834140860DFF892
:1031FC001C040078C00709D5DFF834040068804748
:10320C000121DFF81C04FDF729FFF0E701BD10B523
:10321C00DFF8200400680400DFF81C040068044098
:10322C00E00508D5DFF8E403006850F08070DFF8A3
:10323C00DC13086046E0A00731D5DFF8BC0300685A
:10324C00007B00072BD5DFF8B00300680068006B2B
:10325C00DFF8A413096889680870DFF89C0300681C
:10326C008068401CDFF8901309688860DFF8B803A9
:10327C000068401EDFF8B0130860DFF8AC0300688C
:10328C0001281FD1DFF8700300680068006850F057
:10329C000200DFF8641309680968086012E060072F
:1032AC0008D5DFF854030068007B800702D5FFF7D0
:1032BC0044FF07E0DFF85403006850F00070DFF8BB
:1032CC004C13086010BD000080B5DFF834030078A3
:1032DC00DFF840130978884200F096800020DFF870
:1032EC0018130968096848602420DFF80C13096872
:1032FC0009680860DFF80403DFF81813097809017E
:10330C00085C002832D1BC48006800684068BB49A2
:10331C00DFF80023127811EB0211097A50EA014010
:10332C00B549096809684860B34800684068406856
:10333C00BD490860B048006840680830BB49086067
:10334C00FFF7FBFE0221AC48006840680068FFF7FD
:10335C0089F8A9480068C06850F00600A6490968B9
:10336C00C8600FF2A900B249086044E0A348A9491B
:10337C0009780901085C01283DD19F480068006864
:10338C0040689D490968096848609C48A1490978CA
:10339C0010EB01104068A449086098489D490978D1
:1033AC0010EB0110C0689449096888609E48006859
:1033BC0001280AD1904800680068006850F00300AA
:1033CC008D4909680968086009E08B480068006845
:1033DC00006850F00100884909680968086086484F
:1033EC000068C06850F0080083490968C8600FF293
:1033FC00F1008F4908608548006810F07F4F03D0BA
:10340C000FF255108A49086001BD000080B57B4859
:10341C008049097810EB0110807A002818D1824875
:10342C000068002826D1744800680068006A4007CC
:10343C0020D5714800680068006AC0071AD56E482C
:10344C000068C06830F006006B490968C86011E07C
:10345C007548006800280DD1674800680068006A4C
:10346C00400707D564480068C06830F00200624924
:10347C000968C86060480068007B800725D4042177
:10348C005D48006840680068FEF7ECFF5A48006829
:10349C00001DFEF77EFF5D480068400840005B4958
:1034AC0008606648624908605A480078401C5949CF
:1034BC00087050480078401E4E49087055480078F6
:1034CC00102802D10020534908705048006810F0B1
:1034DC007F4F03D00FF281005549086001BD0000F9
:1034EC005148006800282DD1434800680068006AE4
:1034FC00800727D5404800680068006AC00721D5BE
:10350C003D480068C06830F008003B490968C86055
:10351C003E480068400840003C4908604748444920
:10352C0008603C480078401C3A49087031480078E3
:10353C00401E3049087037480078102802D100200E
:10354C00344908703148006810F07F4F03D00FF2F7
:10355C00090037490860704780B52C480068C001E5
:10356C003AD526482649097810EB0110407A401CC0
:10357C002249234A127811EB021148721F48204944
:10358C00097810EB0110407A032821D121480078EA
:10359C00401C2049087017480078401E15490870D7
:1035AC001C480078102802D100201A4908701248D3
:1035BC000068007B80070BD506210F480068406827
:1035CC000068FEF74FFF0C480068001DFEF7E1FE97
:1035DC00002009490968C8600C4800680002000A0C
:1035EC000A49086015481249086001BD00E100E075
:1035FC0080E200E03B190020B41800206413002086
:10360C00391900208018002010040E40B01800203A
:10361C00B81700203A1900200040084098180020E4
:10362C00AC1800201D1D0200B8180020BC1800208A
:10363C00A81800202C40084020400840D532080033
:10364C0080B50020DFF8D81608703420DFF8D016CB
:10365C00C8701220DFF8C81608710120DFF8C016F8
:10366C0048710120DFF8B81688710020DFF8B01619
:10367C00C8712020DFF8A81608723220DFF8A016D7
:10368C0048720320DFF898168872022000F070FB55
:10369C000F2000F06DFB0020DFF888160870012069
:1036AC0000F00EFC002807D000F0DBFC0FF221002C
:1036BC00DFF87416086004E00FF2B160DFF86816EA
:1036CC00086001BD80B5DFF860060068804701BD69
:1036DC0080B5DFF858060078002828D00020DFF8E5
:1036EC0044160870012000F043FBDFF8441600205C
:1036FC0000F053FBDFF83C16402000F04EFBDFF8E7
:10370C0038060078FF2805D1DFF83016502000F07D
:10371C0044FB04E0DFF82816502000F03EFB0220AA
:10372C0000F026FB0020DFF804160870D1E701201A
:10373C0000F026FD002832D0012000F02AFDDFF831
:10374C00E40500780E2804D14020DFF8D815087065
:10375C001DE0DFF8D00500784A2804D10020DFF8FE
:10376C00C415087013E0DFF8BC050078402807DBAF
:10377C00DFF8B0050078401DDFF8A815087006E0EA
:10378C00DFF8A0050078C01DDFF898150870DFF889
:10379C009405007850F08000C0B200F0E9FA0020E7
:1037AC0000F0EEFC002832D0002000F0F2FCDFF834
:1037BC0074050078002804D14A20DFF868150870D9
:1037CC001DE0DFF860050078402804D10E20DFF8FA
:1037DC005415087013E0DFF84C050078402807DB1F
:1037EC00DFF840050078401FDFF83815087006E058
:1037FC00DFF830050078C01FDFF828150870DFF8F7
:10380C002405007850F08000C0B200F0B1FA02201C
:10381C0000F0B6FC00284DD0022000F0BAFCDFF816
:10382C000405007800280AD0072812D00E281AD0D8
:10383C00402822D045282AD04A2832D03AE001200C
:10384C00DFF8E81408700FF29500DFF8DC1408605C
:10385C0030E00120DFF8D41408700FF2A500DFF877
:10386C00C814086026E00120DFF8C01408700FF2BD
:10387C000D20DFF8B41408601CE00120DFF8AC1454
:10388C0008700FF2D520DFF8A014086012E00120B8
:10389C00DFF8981408700FF28130DFF88C14086090
:1038AC0008E00120DFF8841408700FF24940DFF8BB
:1038BC007814086000F008FC00280DD0DFF88404B0
:1038CC000078012808D0DFF87C040078022803D1A6
:1038DC00DFF8640400F0DDFB01BD0000DFF85804E4
:1038EC000078C043DFF8501408700120DFF83C1456
:1038FC000870DFF85404DFF83014086070470000DB
:10390C0080B5DFF828040078002818D0012000F0DA
:10391C002FFADFF83814002000F03FFADFF83014EB
:10392C00402000F03AFA0020DFF800140870022062
:10393C0000F01EFA0020DFF8EC130870E1E701201C
:10394C0000F01EFC002832D0012000F022FCDFF831
:10395C00D40300780A2804D14020DFF8C81308707B
:10396C001DE0DFF8C00300784B2804D10020DFF8FD
:10397C00B413087013E0DFF8AC030078402807DBC1
:10398C00DFF8A00300780B30DFF89813087006E01E
:10399C00DFF890030078401DDFF888130870DFF81B
:1039AC008403007850F08000C0B200F0E1F90020F0
:1039BC0000F0E6FB002832D0002000F0EAFBDFF834
:1039CC0064030078002804D14B20DFF858130870EA
:1039DC001DE0DFF850030078402804D10A20DFF8FE
:1039EC004413087013E0DFF83C030078402807DB31
:1039FC00DFF8300300780B38DFF82813087006E086
:103A0C00DFF820030078401FDFF818130870DFF888
:103A1C001403007850F08000C0B200F0A9F9022025
:103A2C0000F0AEFB002828D0022000F0B2FBBD480D
:103A3C000078002808D005280AD00A280CD0402885
:103A4C000ED04B2810D012E00020BB4948700EE07D
:103A5C000120B94948700AE00220B749487006E0D5
:103A6C000320B549487002E00420B3494870012096
:103A7C00AE490870B448AC49086001BD00B585B0CA
:103A8C0000A8B4490D22FDF707FBA84800780028D0
:103A9C000DD0012000F06CF900A9002000F07DF998
:103AAC00AD49402000F079F90020A04908700120B0
:103ABC0000F066FB002817D0012000F06AFBA64836
:103ACC004078401CA4494870A34840783A2807D154
:103ADC003020A1494870A0480078401C9E490870CD
:103AEC009D49402000F059F9002000F049FB0028C6
:103AFC0017D0002000F04DFB97484078401E9649A7
:103B0C004870954840782F2807D139209249487041
:103B1C0091480078401E904908708F49402000F071
:103B2C003CF9022000F02CFB002812D0022000F0FF
:103B3C0030FB894800780A21874A527801FB002023
:103B4C0010387D4988700120784908707E48764984
:103B5C00086005B000BD000010B584B000A87F4916
:103B6C001CC91CC00C390C387048007800280ED0C9
:103B7C00012000F0FDF800A9002000F00EF97849B2
:103B8C00402000F00AF9002068490870ECE7012099
:103B9C0000F0F6FA002813D0012000F0FAFA704871
:103BAC000078332803D131206D49087004E06C484B
:103BBC000078401C6A4908706949402000F0EDF813
:103BCC00002000F0DDFA002813D0002000F0E1FA0C
:103BDC0063480078312803D133206149087004E030
:103BEC005F480078401E5E4908705D49402000F037
:103BFC00D4F8022000F0C4FA00280CD0022000F007
:103C0C00C8FA574800784C49C870012047490870D9
:103C1C004D48454908601FBD00B583B000A8514907
:103C2C000CC90CC0083908384048007800280DD061
:103C3C00012000F09DF800A9002000F0AEF84A49E0
:103C4C00402000F0AAF8002038490870012000F04C
:103C5C0097FA002817D0012000F09BFA42484078D0
:103C6C00401C41494870404840783A2807D13020E0
:103C7C003D4948703C480078401C3B4908703A4923
:103C8C00402000F08AF8002000F07AFA002817D0C3
:103C9C00002000F07EFA34484078401E32494870CB
:103CAC00314840782F2807D139202F4948702E48A9
:103CBC000078401E2C4908702B49402000F06DF80C
:103CCC00022000F05DFA002812D0022000F061FA08
:103CDC00254800780A21244A527801FB002010382C
:103CEC001549087101201149087017480E490860E0
:103CFC0007BD000080B510484079C0430E4948719B
:103D0C000820FEF712FF0920FEF70FFF0A20FEF72E
:103D1C000CFF0120054908700B480349086001BDE0
:103D2C00C81700203D190020241900203C04002055
:103D3C0008030020BC030020080400202C040020F1
:103D4C002804002034190020DD360800CC030020A4
:103D5C0098030020304F080030040020584F080012
:103D6C003A040020B04F08003404002070470A0DBC
:103D7C0010B50400464844700023454A02213C20FB
:103D8C00FFF7E7F843480068002805D500204249B2
:103D9C00884201D2401CFAE710BD70B504000D003A
:103DAC0054F08000C0B2FFF7E3FF01200600287832
:103DBC00002806D028783949F6B270546D1C761C50
:103DCC00F5E70023354AF6B231003C20FFF7C1F885
:103DDC0070BD00B589B000A831490CC90CC00839B8
:103DEC00083802A82F491622FDF756F90FF2CD001C
:103DFC002D4908604FF400702C4908602C4800686D
:103E0C002C49086028212B48FDF728F90028F9D007
:103E1C00012200213C20FFF731F8012300AA0621E2
:103E2C003C20FFF796F82248006822490860C82118
:103E3C002048FDF713F90028F9D000220C213C2072
:103E4C00FFF71CF80820FEF715FE0920FEF712FEFE
:103E5C000A20FEF70FFE012240213C20FFF70EF84E
:103E6C00002302AA14213C20FFF773F810480068C5
:103E7C00104908601048006850F008000E490860AE
:103E8C0009B000BD80B508480068804701BD00003E
:103E9C002E19002080180020A0860100840100202B
:103EAC00A84F0800A04E080078180020300E0E40D5
:103EBC00981800207C1800208418002070470000FF
:103ECC0030B58BB0040004A892490CC90CC0083959
:103EDC000838914800788DF812008F4880788DF85A
:103EEC00140000A88D490CC90CC0083908388A4840
:103EFC0000788DF802008848C0788DF80300864859
:103F0C0000798DF80400844840798DF805008248CA
:103F1C0080798DF8060002A881490CC90CC00839BB
:103F2C0008387D4800788DF80A007B48C0798DF8F8
:103F3C000B007948007A8DF80C0008A879490CC957
:103F4C000CC008390838744800788DF82200724883
:103F5C00407A8DF8230006A873490CC90CC00839A7
:103F6C0008386D4800788DF81A006B48807A8DF807
:103F7C001B0000256D48006830F002006B4908609A
:103F8C00E4B2002C05D100208DF81300002062490A
:103F9C00487004A8FCF7A9FC8DF8150004A8FCF7E0
:103FAC003DFB4FF47A714220FCF7FEFB40190500F3
:103FBC0000A8FCF79AFC8DF8070000A8FCF72EFB74
:103FCC004FF47A715120FCF7EFFB4019050002A861
:103FDC00FCF78BFC8DF80D0002A8FCF71FFB4FF4CF
:103FEC007A714320FCF7E0FB4019050008A8FCF7A8
:103FFC007CFC8DF8240008A8FCF710FB4FF47A71B8
:10400C004520FCF7D1FB4019050006A8FCF76DFC18
:10401C008DF81C0006A8FCF701FB4FF47A714720C1
:10402C00FCF7C2FB401905004148FDF787F8EDB2DB
:10403C00002D0AD03F48006830F010003D49086060
:10404C003D48FDF77BF8002009E03C48FDF776F889
:10405C003648006850F400303449086001200BB039
:10406C0030BD80B500A836490A6802602A4800783D
:10407C008DF8020000A8FCF738FC8DF803002B48E3
:10408C00006850F480202949086000A8FCF73FFC28
:10409C0002BD10B50400204800782A498870002021
:1040AC00C0B2082807DAC0B2015D264AC0B2821835
:1040BC00D170401CF4E72348FCF717FC2149C87267
:1040CC002048FCF724FC10BD10B51F4800680028E0
:1040DC001DD01D48006800681C4908601A4800681B
:1040EC0000791B4908701848006800F205000400AC
:1040FC000020C0B2082806DAC0B2015D154AC0B271
:10410C008154401CF5E7FCF766FC012000E0002020
:10411C0010BD0000784F0800C8170020804F080021
:10412C00884F0800904F0800984F0800F0170020A7
:10413C003403002080180020F0030020E803002046
:10414C00B84F0800DC030020F417002044180020AE
:10415C0034190020E0170020012110F01F029140BB
:10416C008D4A40B2430942F823107047012110F0E8
:10417C001F029140894A40B2430942F8231070470C
:10418C0001008848085C012801D1012000E00020D2
:10419C0070470021834A8154704738B500240025AC
:1041AC000020C0B204280DDA0021804AC0B281542C
:1041BC0000217B4AC0B2815400217D4AC0B2815497
:1041CC00401CEEE70020C0B204281ADA7949C0B2CC
:1041DC0011EB40014978002905D17749C0B251F85B
:1041EC0020100C430BE07349C0B211EB400149782D
:1041FC00802904D17049C0B251F820100D43401CE5
:10420C00E1E76E4804606E4805606E480068040083
:10421C006D48006805000A20FFF7A8FF0B20FFF788
:10422C00A5FF0A20FFF798FF0B20FFF795FF0FF271
:10423C004D00664908606648006850F00200644909
:10424C0008606448FCF77AFF31BD80B55F480068B0
:10425C00804701BD0200D2B2042A0CDA5548D2B212
:10426C0010EB42004078C9B2884204D15248D2B215
:10427C0050F8220000E00020704700000020C0B27F
:10428C0004280ADA4949C0B2415C002903D00FF274
:10429C000D014E4A1160401CF1E7704770B54E4855
:1042AC004A4908600026F6B2042E74DA4B4841499C
:1042BC00F6B211EB4601497810EB810004003F483F
:1042CC003C49F6B211EB4601497810EB8100050030
:1042DC003648F6B2305C00285BD041483B49086058
:1042EC0019214048F6B210EB8600FCF7B7FE002807
:1042FC004FD03048F6B210F81600002811D12068C3
:10430C00C0432D49F6B251F82610084204D00120C2
:10431C002749F6B2705414E000202549F6B27054C7
:10432C000FE020682449F6B251F82610084204D058
:10433C0001201F49F6B2705403E000201C49F6B26C
:10434C0070541B48F6B2305C1549F6B2715C884269
:10435C0014D01748F6B2305C1149F6B270541048BC
:10436C00F6B2305C012809D101200E49F6B2705426
:10437C001D4800680C49F6B241F8260000200B4994
:10438C00F6B2705428680C49F6B251F8261008435E
:10439C002860761C87E770BD00E100E080E200E059
:1043AC005018002058180020A8170020481800208A
:1043BC0054180020F8030020204F0800400C0E4039
:1043CC00400E0E404C0C0E404C0E0E404C18002073
:1043DC008418002070030020894208003C0C0E4019
:1043EC00A94208009817002098180020DFF86C02EA
:1043FC00DFF86C12086004209A4908604FF4807052
:10440C009949086099489A4908609A480068C00719
:10441C00FBD5974800689849084395490860974828
:10442C0097490860934800688007FBD54FF40070EB
:10443C009449086042F21100934908608D48006865
:10444C000007FBD542F212008F49086089480068CA
:10445C000007FBD58D48006850F444108B49086068
:10446C00844800684006FBD57047002088490860E6
:10447C0000208849086041F26F708749086000206D
:10448C0086490860032086490860704780B58048DB
:10449C00006884490968401A012817D082480068CE
:1044AC00401C814908608148006850F020007F4919
:1044BC0008607F480078C00708D57E48FCF73EFEB0
:1044CC0079480068FCF75AFEFCF74AFE7048006811
:1044DC00744908607848006830F4801076490860A8
:1044EC007648006830F00400744908606F48006832
:1044FC0050F080406D4908606C480068400001D560
:10450C0030BFF9E701BD6E486E4908606E486F49CF
:10451C000860704780B56E486E4908606E486F49F8
:10452C0008606F486F4908606F4870490860002048
:10453C006F49086000206F4908606F486F49086038
:10454C005FF040506E4908606E486F4908606F48D4
:10455C006F4908607FF001006E49086001206E49C8
:10456C0008605FF0F6406D49086000206C490860F7
:10457C0000206C49086000206B4908606B486C494E
:10458C00086000206B4908606B486C4908606C48F7
:10459C006C4908606C486D4908606D486D4908604D
:1045AC0000206D49086000206C4908606C486D491A
:1045BC00086000206C49086000206C4908607FF09E
:1045CC007E406B4908606B486B4908604FF4F07093
:1045DC006A4908605A486A490860002069490860BD
:1045EC0000206949086000206849086068486949EA
:1045FC00086000206849086000F001F801BD5FF018
:10460C00011066490860002065490860032065496F
:10461C00086041F270706449086041F2707063493F
:10462C00086042F6E0606249086042F6E060614969
:10463C00086003206049086040F2DC505F49086064
:10464C0040F2DC505E49086040F6B8305D490860C5
:10465C0040F6B8305C4908607047000073EDFC27E9
:10466C0010040E4040040E4000040E4019F03700B8
:10467C0020040E4068040E4000003701013F072063
:10468C0028040E4000080E4030040E401C040E405E
:10469C00981800209C18002014E000E018E000E0BE
:1046AC0010E000E0A4180020A018002080180020C2
:1046BC005C1800203C02002070040E4010ED00E05D
:1046CC000085011054120E40010000A550120E403E
:1046DC0007000384000C0E40F8FFFC7B040C0E401A
:1046EC00F9D755BF100C0E400628AA40140C0E40EA
:1046FC00200C0E40240C0E4000000188300C0E40A3
:10470C00340C0E4000060004500C0E40FFF9FFFB69
:10471C00540C0E40600C0E40640C0E40700C0E409D
:10472C00800C0E40840C0E408C0C0E40000001B42A
:10473C00A00C0E40A40C0E40E7FFBF01000E0E4073
:10474C0018004000040E0E40E0FFBF01100E0E409A
:10475C001F004000140E0E40200E0E40240E0E4082
:10476C0000FEBF01300E0E40340E0E40500E0E40B7
:10477C00540E0E401FFEFF01600E0E40640E0E40E4
:10478C00700E0E40800E0E40840E0E408C0E0E40AD
:10479C00E0FF1F00A00E0E40A40E0E4000C008400B
:1047AC0020C0084000C208400CC2084010C208409B
:1047BC0004C2084008C2084020C208402CC208406D
:1047CC0030C2084024C2084028C20840012110F021
:1047DC001F029140604A40B2430942F823107047CF
:1047EC00012110F01F0291405C4A40B2430942F88B
:1047FC002310704710B588B000A859492022FCF747
:10480C005BFC0020C0B2082809DA00A9C0B251F83C
:10481C002010544AC0B242F82010401CF2E7002489
:10482C00E4B21D2C09DA200040B2FFF7CFFF2000C4
:10483C0040B2FFF7D5FF641CF2E708B010BD80B59D
:10484C000020FEF746F90320FEF743F90120FEF79E
:10485C0040F90620FEF73DF90220FEF73AF9042054
:10486C00FEF737F90520FEF734F90720FEF702F9B9
:10487C00FEE73D480068401C3B4908603B48006827
:10488C0030F080403949086039480088401E38496A
:10489C00088037480088002808D14FF47A703449D2
:1048AC00088034480068401C324908607047F8B5ED
:1048BC0031480068040014F400300500002D1CD0B1
:1048CC000027FFB2042F18DA00213800C0B2FFF71E
:1048DC00C1FC060035420ED02848006830432749F9
:1048EC00086001202649FFB278541F48006825490A
:1048FC00FFB241F827007F1CE3E70A20FFF770FFA7
:10490C00F1BDF8B520480068040014F0070005005C
:10491C00002D1CD00027FFB2042F18DA802138009C
:10492C00C0B2FFF797FC060035420ED0174800685E
:10493C0030431649086001201149FFB278540A48E7
:10494C0000681049FFB241F827007F1CE3E74FF4E1
:10495C00006002490860F1BD80E100E080E200E007
:10496C00A44D080000E400E09818002080180020F6
:10497C00380400209C1800204C0C0E40440C0E40B7
:10498C0048180020981700204C0E0E40440E0E4084
:10499C0000B587B000A826491722FCF77DFB002044
:1049AC0080B2B0F5097F05D20021204A80B2815433
:1049BC00401CF5E71D481F4908601C481E4908604B
:1049CC0003201E4908701E481C4948604FF4807033
:1049DC001A49886015481949886116481749C861F1
:1049EC004FF40970154908840020144908730020FD
:1049FC00124948731148FCF749FF124908600FF23D
:104A0C0029001149086000A8FCF798FB0F480068C2
:104A1C0050F020000D49086007B000BD80B50A4871
:104A2C000068804701BD0000704700004010002066
:104A3C00B84E08001C190020201900207417002003
:104A4C00000C0E40181900201419002084180020A6
:104A5C0080B52948006850F0004027490860FFF7EE
:104A6C0052FDFFF757FDFFF7C1FCFFF7C3FEFFF741
:104A7C00FCFCFDF7B9FCFDF721FEFCF711FCFCF783
:104A8C00C1FFFEF7D3FAFFF7A4F9FEF75FF8FFF7C3
:104A9C0084FBFBF7F5FCFFF77BFFFEF7D1FDFCF782
:104AAC00C5FB1548006840004008134908601348CE
:104ABC0013490860FEF7AFF8FFF7C7FBFDF77CFE64
:104ACC00FDF71FF8FEF733FBFDF7C7FCFCF746FCC0
:104ADC00FFF7D8F9FBF79CFDFFF7A0FFFEF7F2FDFF
:104AEC005FF0004007490860FFF7D0FC5FF0004022
:104AFC0005490860DBE700BF80180020010000A515
:104B0C0050120E40300C0E40340C0E400A0D496E03
:104B1C00697469616C697A6174696F6E20636F6D19
:104B2C00706C6574652E205479706520656E2B63EE
:104B3C00303020666F72206465627567206D656E1B
:104B4C00752E20204661696C6564207461736B73EB
:104B5C003A0A0D004C45440000000000000042558C
:104B6C0054544F4E0000000044454255470000008D
:104B7C0000004C434400000000000000414E540073
:104B8C000000000000005344000000000000000082
:104B9C000A0D4E6F20737061636520696E20416E43
:104BAC007451756575654170706C69636174696F7A
:104BBC006E4D6573736167650A0D00000A0D4E6FCB
:104BCC0020737061636520696E20416E7451756548
:104BDC0075654F7574676F696E674D657373616743
:104BEC00650A0D0010B5074979441831064C7C4410
:104BFC00163404E00A68081D511888470146A14282
:104C0C00F8D110BD7001000090010000416E745489
:104C1C00783A206D736720616C72656164792069E4
:104C2C006E2070726F67726573730A0D000000005E
:104C3C0053686F7720646562756720636F6D6D6173
:104C4C006E64206C6973742020202020202020208A
:104C5C0000000000546F67676C65204C454420745D
:104C6C00657374202020202020202020202020204C
:104C7C002020202000000000546F67676C652073B3
:104C8C00797374656D2074696D696E6720776172D4
:104C9C006E696E67202020200000000044756D6D49
:104CAC00793320202020202020202020202020208C
:104CBC002020202020202020202020200000000068
:104CCC0044756D6D79342020202020202020202058
:104CDC0020202020202020202020202020202020C8
:104CEC000000000044756D6D7935202020202020B7
:104CFC0020202020202020202020202020202020A8
:104D0C00202020200000000044756D6D7936202095
:104D1C002020202020202020202020202020202087
:104D2C0020202020202020200000000044756D6DE4
:104D3C0079372020202020202020202020202020F7
:104D4C0020202020202020202020202000000000D7
:104D5C000A0D53797374656D2074696D65207669DD
:104D6C006F6C6174696F6E207265706F7274696EAE
:104D7C00672000008FE0FFFF0015000040040020BA
:104D8C00000000008BC3FFFF400400002402000061
:104D9C000000002000000000F000F0F040F0F0F007
:104DAC00F0F05050503030F0F0F020F020F0004097
:104DBC0040F0F0F0F01000000A0D55415254206301
:104DCC006F756E746572206F7574206F66207379C1
:104DDC006E630A0D000000000D0A414E54206578E8
:104DEC00706563746564206D7367206661696C0A15
:104DFC000D0000000A0A0D417661696C61626C65F8
:104E0C0020636F6D6D616E64733A0A0D00000000D3
:104E1C0000F00CF8002801D0FFF7E4FE0020C0469B
:104E2C00C046FFF715FE00F00BF8000002490348DE
:104E3C0001600120704700BF0000080008ED00E091
:104E4C0000F000B80746384600F002F8FBE7000017
:104E5C0080B5C046C046024A11001820ABBEFBE725
:104E6C0026000200416E7452783A206D65737361AE
:104E7C006765206661696C65640A0D00416E745447
:104E8C00783A2053454E2074696D656F75740A0D20
:104E9C000000000052415A4F522053414D335532BD
:104EAC0020415343494920202000000053644361B2
:104EBC007264207461736B2064697361626C6564E5
:104ECC000A0D0000416E7452783A2074696D656F5A
:104EDC0075740A0D00000000416E7454783A204E2F
:104EEC006F20746F6B656E0A0D000000416E745478
:104EFC00783A204E6F2053594E430A0D00000000A3
:104F0C004368616E6E656C20636C6F7365640A0D2B
:104F1C000000000000000200010000000200000080
:104F2C000400000074656D707261747572653A20CE
:104F3C00000000000A0D44756D6D79210A0A0D0000
:104F4C000A0D4C65642054657374200077696E6497
:104F5C007370656564203A00C046C046C046C046C2
:104F6C00FFF756FF024D003E000000000342001008
:104F7C000000000005510000000000000343000089
:104F8C000000000002450000000000000247000085
:104F9C00000000004E4F4E450000000038391472DE
:104FAC005E6D000074696D696E673A00014B00001C
:104FBC000100140014000101800001001400140011
:104FCC0001018000010014001400010180000100A7
:104FDC0014001400010180000100140014000101F0
:104FEC008000010014001400010180000100140075
:104FFC001400010180000100140014000101800064
:10500C0001001400140001018000010014001400C0
:10501C000101800001001400140001018000000057
:10502C004C656E677468206D69736D617463680A92
:10503C000D000000436F6D6D616E64206572726FC0
:10504C00720A0D0000000000556E6578706563747F
:10505C006564206576656E740A0D0000556E657882
:10506C00706563746564206D6573736167650A0DA3
:10507C000A0A0D2A2A2A2052415A4F522053414DD6
:10508C00335532204153434949204C434420444535
:10509C0056454C4F504D454E5420424F41524420A2
:1050AC002A2A2A0A0D446562756720726561647943
:1050BC000A0D00000A0D232323206E52463531348D
:1050CC0032322050726F6772616D6D696E67204D60
:1050DC006F64653A206E6F20414E542066756E6386
:1050EC0074696F6E616C69747920232323230A0D14
:1050FC00000000003C4C08009D130800604C0800A8
:10510C0055140800844C080071150800A84C0800C0
:10511C003B140800CC4C08003B140800F04C080071
:10512C003B140800144D08003B140800384D0800CF
:10513C003B140800400000000000000000000000CC
:10514C000000000000000000000000000000000053
:10515C000000000000000000000000000000000043
:10516C0000200000004000000000040000000100CE
:10517C000000080000000200008000000000100089
:10518C000004000000080000001000006661696C5B
:10519C0065642E20486F737420494F7320736574B7
:1051AC0020746F2048695A2E0D0A00000A0D5472A3
:1051BC00616E736D6974206D6573736167652074BE
:1051CC00696D656F75740A0D000000000D0A2A2ABE
:1051DC002A20436F6D6D616E6420746F6F206C6F4D
:1051EC006E67202A2A2A0D0A0A0000000A0D2A2AB4
:1051FC002A20316D732074696D696E672076696F32
:10520C006C6174696F6E3A20000000004465666141
:10521C00756C74204368616E6E656C20526573709A
:10522C006F6E736520000000414E54206368616E00
:10523C006E656C20756E61737369676E200000007B
:10524C00496E697469616C697A696E6720414E5464
:10525C002E2E2E20000000000A0A4465627567207D
:10526C007461736B206572726F723A2000000000DB
:10527C004C45442066756E6374696F6E732072655D
:10528C006164790A0D000000535350205065726917
:10529C0070686572616C732052656164790A0D00E7
:1052AC00496E76616C696420535350206174746547
:1052BC006D70740D0A000000737769746368206662
:1052CC00756E74696F2074656D70657200000000F6
:1052DC00414E54206368616E6E656C206173736916
:1052EC00676E2000414E54206368616E6E656C20C1
:1052FC007365747570200000414E54206368616EB4
:10530C006E656C20636C6F7365200000414E5420F9
:10531C006368616E6E656C206F70656E20000000B6
:10532C00427574746F6E207461736B207265616466
:10533C00790A0D000A496E76616C696420636F6DA1
:10534C006D616E640A0A0D00617265666163746951
:10535C006F6E206165726174696F6E00414E5420EE
:10536C00666C6167733A0A0D0000000077696E6421
:10537C00206175746F20736C65657000636F6F6C62
:10538C00206865617420636F6D662000094E000013
:10539C0000000000000000004F4B0A0D0000000050
:1053AC004641494C0A0D000000000080008000803E
:1053BC00656E2B6300000000FF00100100FF000071
:1053CC004F4E0D0A000000004F46460D0A0000002B
:1053DC0008200800E80300006F6E00006F6666008E
:1053EC003136000030300000E803310001000000CD
:0400000500084F653B
:00000001FF
